{
  "_format": "hh-sol-artifact-1",
  "contractName": "SecretStore",
  "sourceName": "contracts/SecretStore.sol",
  "abi": [
    {
      "inputs": [],
      "stateMutability": "payable",
      "type": "constructor"
    },
    {
      "anonymous": false,
      "inputs": [
        {
          "indexed": true,
          "internalType": "address",
          "name": "from",
          "type": "address"
        },
        {
          "indexed": false,
          "internalType": "string",
          "name": "message",
          "type": "string"
        },
        {
          "indexed": false,
          "internalType": "uint256",
          "name": "timestamp",
          "type": "uint256"
        }
      ],
      "name": "NewMessage",
      "type": "event"
    },
    {
      "inputs": [],
      "name": "getAllSecrets",
      "outputs": [
        {
          "components": [
            {
              "internalType": "address",
              "name": "spy",
              "type": "address"
            },
            {
              "internalType": "string",
              "name": "secret",
              "type": "string"
            },
            {
              "internalType": "uint256",
              "name": "timestamp",
              "type": "uint256"
            }
          ],
          "internalType": "struct SecretStore.Message[]",
          "name": "",
          "type": "tuple[]"
        }
      ],
      "stateMutability": "view",
      "type": "function"
    },
    {
      "inputs": [],
      "name": "getTotalMessages",
      "outputs": [
        {
          "internalType": "uint256",
          "name": "",
          "type": "uint256"
        }
      ],
      "stateMutability": "view",
      "type": "function"
    },
    {
      "inputs": [
        {
          "internalType": "string",
          "name": "secret",
          "type": "string"
        }
      ],
      "name": "send",
      "outputs": [],
      "stateMutability": "nonpayable",
      "type": "function"
    }
  ],
  "bytecode": "0x60806040526200004f6040518060400160405280601481526020017f436f6e747261637420436f6e73747275637465640000000000000000000000008152506200005560201b6200058e1760201c565b620001e9565b620000f5816040516024016200006c919062000162565b6040516020818303038152906040527f41304fac000000000000000000000000000000000000000000000000000000007bffffffffffffffffffffffffffffffffffffffffffffffffffffffff19166020820180517bffffffffffffffffffffffffffffffffffffffffffffffffffffffff8381831617835250505050620000f860201b60201c565b50565b60008151905060006a636f6e736f6c652e6c6f679050602083016000808483855afa5050505050565b60006200012e8262000186565b6200013a818562000191565b93506200014c818560208601620001a2565b6200015781620001d8565b840191505092915050565b600060208201905081810360008301526200017e818462000121565b905092915050565b600081519050919050565b600082825260208201905092915050565b60005b83811015620001c2578082015181840152602081019050620001a5565b83811115620001d2576000848401525b50505050565b6000601f19601f8301169050919050565b610f8280620001f96000396000f3fe608060405234801561001057600080fd5b50600436106100415760003560e01c8063147e91081461004657806366792ba114610064578063b01b228b14610080575b600080fd5b61004e61009e565b60405161005b9190610c9a565b60405180910390f35b61007e60048036038101906100799190610893565b6100a8565b005b61008861043d565b6040516100959190610b96565b60405180910390f35b6000600154905090565b42610384600360003373ffffffffffffffffffffffffffffffffffffffff1673ffffffffffffffffffffffffffffffffffffffff168152602001908152602001600020546100f69190610d87565b10610136576040517f08c379a000000000000000000000000000000000000000000000000000000000815260040161012d90610c7a565b60405180910390fd5b42600360003373ffffffffffffffffffffffffffffffffffffffff1673ffffffffffffffffffffffffffffffffffffffff16815260200190815260200160002081905550600180600082825461018c9190610d87565b925050819055506101b5604051806060016040528060218152602001610f2c6021913933610627565b600260405180606001604052803373ffffffffffffffffffffffffffffffffffffffff16815260200183815260200142815250908060018154018082558091505060019003906000526020600020906003020160009091909190915060008201518160000160006101000a81548173ffffffffffffffffffffffffffffffffffffffff021916908373ffffffffffffffffffffffffffffffffffffffff1602179055506020820151816001019080519060200190610274929190610788565b506040820151816002015550503373ffffffffffffffffffffffffffffffffffffffff167f4bba44446aea2a9f27db36c95346239fd392bf3a497349684a3890d0d764077d82426040516102c9929190610c0a565b60405180910390a26000805442446102e19190610d87565b6102eb9190610d87565b905061032c6040518060400160405280601481526020017f52616e646f6d20232067656e657261746564203a000000000000000000000000815250826106c3565b8060008190555060328110156104395760006509184e72a00090504781111561038a576040517f08c379a000000000000000000000000000000000000000000000000000000000815260040161038190610c3a565b60405180910390fd5b60003373ffffffffffffffffffffffffffffffffffffffff16826040516103b090610b81565b60006040518083038185875af1925050503d80600081146103ed576040519150601f19603f3d011682016040523d82523d6000602084013e6103f2565b606091505b5050905080610436576040517f08c379a000000000000000000000000000000000000000000000000000000000815260040161042d90610c5a565b60405180910390fd5b50505b5050565b60606002805480602002602001604051908101604052809291908181526020016000905b8282101561058557838290600052602060002090600302016040518060600160405290816000820160009054906101000a900473ffffffffffffffffffffffffffffffffffffffff1673ffffffffffffffffffffffffffffffffffffffff1673ffffffffffffffffffffffffffffffffffffffff1681526020016001820180546104ea90610e5b565b80601f016020809104026020016040519081016040528092919081815260200182805461051690610e5b565b80156105635780601f1061053857610100808354040283529160200191610563565b820191906000526020600020905b81548152906001019060200180831161054657829003601f168201915b5050505050815260200160028201548152505081526020019060010190610461565b50505050905090565b610624816040516024016105a29190610bb8565b6040516020818303038152906040527f41304fac000000000000000000000000000000000000000000000000000000007bffffffffffffffffffffffffffffffffffffffffffffffffffffffff19166020820180517bffffffffffffffffffffffffffffffffffffffffffffffffffffffff838183161783525050505061075f565b50565b6106bf828260405160240161063d929190610bda565b6040516020818303038152906040527f319af333000000000000000000000000000000000000000000000000000000007bffffffffffffffffffffffffffffffffffffffffffffffffffffffff19166020820180517bffffffffffffffffffffffffffffffffffffffffffffffffffffffff838183161783525050505061075f565b5050565b61075b82826040516024016106d9929190610c0a565b6040516020818303038152906040527f9710a9d0000000000000000000000000000000000000000000000000000000007bffffffffffffffffffffffffffffffffffffffffffffffffffffffff19166020820180517bffffffffffffffffffffffffffffffffffffffffffffffffffffffff838183161783525050505061075f565b5050565b60008151905060006a636f6e736f6c652e6c6f679050602083016000808483855afa5050505050565b82805461079490610e5b565b90600052602060002090601f0160209004810192826107b657600085556107fd565b82601f106107cf57805160ff19168380011785556107fd565b828001600101855582156107fd579182015b828111156107fc5782518255916020019190600101906107e1565b5b50905061080a919061080e565b5090565b5b8082111561082757600081600090555060010161080f565b5090565b600061083e61083984610ce6565b610cb5565b90508281526020810184848401111561085657600080fd5b610861848285610e19565b509392505050565b600082601f83011261087a57600080fd5b813561088a84826020860161082b565b91505092915050565b6000602082840312156108a557600080fd5b600082013567ffffffffffffffff8111156108bf57600080fd5b6108cb84828501610869565b91505092915050565b60006108e08383610b13565b905092915050565b6108f181610ddd565b82525050565b61090081610ddd565b82525050565b600061091182610d26565b61091b8185610d49565b93508360208202850161092d85610d16565b8060005b85811015610969578484038952815161094a85826108d4565b945061095583610d3c565b925060208a01995050600181019050610931565b50829750879550505050505092915050565b600061098682610d31565b6109908185610d65565b93506109a0818560208601610e28565b6109a981610f1a565b840191505092915050565b60006109bf82610d31565b6109c98185610d76565b93506109d9818560208601610e28565b6109e281610f1a565b840191505092915050565b60006109fa602e83610d76565b91507f436f6e747261637420646f65736e277420686176652073756666696369656e7460008301527f2066756e647320746f2073656e640000000000000000000000000000000000006020830152604082019050919050565b6000610a60602683610d76565b91507f4661696c656420746f207769746864726177206d6f6e65792066726f6d20636f60008301527f6e747261637400000000000000000000000000000000000000000000000000006020830152604082019050919050565b6000610ac6600083610d5a565b9150600082019050919050565b6000610ae0600883610d76565b91507f576169742031356d0000000000000000000000000000000000000000000000006000830152602082019050919050565b6000606083016000830151610b2b60008601826108e8565b5060208301518482036020860152610b43828261097b565b9150506040830151610b586040860182610b63565b508091505092915050565b610b6c81610e0f565b82525050565b610b7b81610e0f565b82525050565b6000610b8c82610ab9565b9150819050919050565b60006020820190508181036000830152610bb08184610906565b905092915050565b60006020820190508181036000830152610bd281846109b4565b905092915050565b60006040820190508181036000830152610bf481856109b4565b9050610c0360208301846108f7565b9392505050565b60006040820190508181036000830152610c2481856109b4565b9050610c336020830184610b72565b9392505050565b60006020820190508181036000830152610c53816109ed565b9050919050565b60006020820190508181036000830152610c7381610a53565b9050919050565b60006020820190508181036000830152610c9381610ad3565b9050919050565b6000602082019050610caf6000830184610b72565b92915050565b6000604051905081810181811067ffffffffffffffff82111715610cdc57610cdb610eeb565b5b8060405250919050565b600067ffffffffffffffff821115610d0157610d00610eeb565b5b601f19601f8301169050602081019050919050565b6000819050602082019050919050565b600081519050919050565b600081519050919050565b6000602082019050919050565b600082825260208201905092915050565b600081905092915050565b600082825260208201905092915050565b600082825260208201905092915050565b6000610d9282610e0f565b9150610d9d83610e0f565b9250827fffffffffffffffffffffffffffffffffffffffffffffffffffffffffffffffff03821115610dd257610dd1610e8d565b5b828201905092915050565b6000610de882610def565b9050919050565b600073ffffffffffffffffffffffffffffffffffffffff82169050919050565b6000819050919050565b82818337600083830152505050565b60005b83811015610e46578082015181840152602081019050610e2b565b83811115610e55576000848401525b50505050565b60006002820490506001821680610e7357607f821691505b60208210811415610e8757610e86610ebc565b5b50919050565b7f4e487b7100000000000000000000000000000000000000000000000000000000600052601160045260246000fd5b7f4e487b7100000000000000000000000000000000000000000000000000000000600052602260045260246000fd5b7f4e487b7100000000000000000000000000000000000000000000000000000000600052604160045260246000fd5b6000601f19601f830116905091905056fe537079202573206861732073656e74206120736563726574206d65737361676521a264697066735822122086df16b12177641fe9b7c5aebe6122e3fdb3e9a43f923dbaa8492f6b105b05da64736f6c63430008000033",
  "linkReferences": {},
  "deployedLinkReferences": {}
}